{
  "contractName": "DataBase",
  "abi": [
    {
      "inputs": [],
      "stateMutability": "nonpayable",
      "type": "constructor"
    },
    {
      "inputs": [],
      "name": "owner",
      "outputs": [
        {
          "internalType": "address",
          "name": "",
          "type": "address"
        }
      ],
      "stateMutability": "view",
      "type": "function",
      "constant": true
    },
    {
      "inputs": [
        {
          "internalType": "string",
          "name": "_tableName",
          "type": "string"
        },
        {
          "internalType": "uint256",
          "name": "_tableSize",
          "type": "uint256"
        },
        {
          "internalType": "string[]",
          "name": "_attrNames",
          "type": "string[]"
        },
        {
          "internalType": "string[]",
          "name": "_records",
          "type": "string[]"
        }
      ],
      "name": "createTable",
      "outputs": [],
      "stateMutability": "nonpayable",
      "type": "function"
    },
    {
      "inputs": [
        {
          "internalType": "string",
          "name": "_tableName",
          "type": "string"
        }
      ],
      "name": "tableSize",
      "outputs": [
        {
          "internalType": "uint256",
          "name": "",
          "type": "uint256"
        }
      ],
      "stateMutability": "view",
      "type": "function",
      "constant": true
    },
    {
      "inputs": [
        {
          "internalType": "string",
          "name": "_tableName",
          "type": "string"
        },
        {
          "internalType": "uint256",
          "name": "index",
          "type": "uint256"
        }
      ],
      "name": "retrieveRecord",
      "outputs": [
        {
          "internalType": "string",
          "name": "key",
          "type": "string"
        },
        {
          "internalType": "string",
          "name": "value",
          "type": "string"
        }
      ],
      "stateMutability": "view",
      "type": "function",
      "constant": true
    }
  ],
  "bytecode": "0x608060405234801561001057600080fd5b50600080546001600160a01b03191633179055610959806100326000396000f3fe608060405234801561001057600080fd5b506004361061004c5760003560e01c80631ab214e9146100515780635389d4da1461007b5780638da5cb5b14610090578063ada32f36146100bb575b600080fd5b61006461005f3660046105fd565b6100dc565b60405161007292919061069e565b60405180910390f35b61008e61008936600461076b565b6102d0565b005b6000546100a3906001600160a01b031681565b6040516001600160a01b039091168152602001610072565b6100ce6100c93660046107fd565b61042b565b604051908152602001610072565b60005460609081906001600160a01b031633146101145760405162461bcd60e51b815260040161010b9061083a565b60405180910390fd5b3360009081526001602052604090819020905161013290869061088d565b90815260200160405180910390208381548110610151576101516108a9565b9060005260206000209060040201600101805461016d906108bf565b80601f0160208091040260200160405190810160405280929190818152602001828054610199906108bf565b80156101e65780601f106101bb576101008083540402835291602001916101e6565b820191906000526020600020905b8154815290600101906020018083116101c957829003601f168201915b5050336000908152600160205260409081902090519496509361020e9350889250905061088d565b9081526020016040518091039020838154811061022d5761022d6108a9565b90600052602060002090600402016002018054610249906108bf565b80601f0160208091040260200160405190810160405280929190818152602001828054610275906108bf565b80156102c25780601f10610297576101008083540402835291602001916102c2565b820191906000526020600020905b8154815290600101906020018083116102a557829003601f168201915b505050505090509250929050565b6000546001600160a01b031633146102fa5760405162461bcd60e51b815260040161010b9061083a565b60005b83811015610424576000604051806080016040528087815260200185848151811061032a5761032a6108a9565b60200260200101518152602001848481518110610349576103496108a9565b6020026020010151815260200186815250905060016000336001600160a01b03166001600160a01b031681526020019081526020016000208660405161038f919061088d565b9081526040516020918190038201902080546001810182556000918252908290208351805185946004909402909201926103ce928492909101906104ad565b5060208281015180516103e792600185019201906104ad565b50604082015180516104039160028401916020909101906104ad565b5060608201518160030155505050808061041c906108fa565b9150506102fd565b5050505050565b600080546001600160a01b031633146104565760405162461bcd60e51b815260040161010b9061083a565b3360009081526001602052604090819020905161047490849061088d565b9081526020016040518091039020600081548110610494576104946108a9565b9060005260206000209060040201600301549050919050565b8280546104b9906108bf565b90600052602060002090601f0160209004810192826104db5760008555610521565b82601f106104f457805160ff1916838001178555610521565b82800160010185558215610521579182015b82811115610521578251825591602001919060010190610506565b5061052d929150610531565b5090565b5b8082111561052d5760008155600101610532565b634e487b7160e01b600052604160045260246000fd5b604051601f8201601f1916810167ffffffffffffffff8111828210171561058557610585610546565b604052919050565b600082601f83011261059e57600080fd5b813567ffffffffffffffff8111156105b8576105b8610546565b6105cb601f8201601f191660200161055c565b8181528460208386010111156105e057600080fd5b816020850160208301376000918101602001919091529392505050565b6000806040838503121561061057600080fd5b823567ffffffffffffffff81111561062757600080fd5b6106338582860161058d565b95602094909401359450505050565b60005b8381101561065d578181015183820152602001610645565b8381111561066c576000848401525b50505050565b6000815180845261068a816020860160208601610642565b601f01601f19169290920160200192915050565b6040815260006106b16040830185610672565b82810360208401526106c38185610672565b95945050505050565b600082601f8301126106dd57600080fd5b8135602067ffffffffffffffff808311156106fa576106fa610546565b8260051b61070983820161055c565b938452858101830193838101908886111561072357600080fd5b84880192505b8583101561075f578235848111156107415760008081fd5b61074f8a87838c010161058d565b8352509184019190840190610729565b98975050505050505050565b6000806000806080858703121561078157600080fd5b843567ffffffffffffffff8082111561079957600080fd5b6107a58883890161058d565b95506020870135945060408701359150808211156107c257600080fd5b6107ce888389016106cc565b935060608701359150808211156107e457600080fd5b506107f1878288016106cc565b91505092959194509250565b60006020828403121561080f57600080fd5b813567ffffffffffffffff81111561082657600080fd5b6108328482850161058d565b949350505050565b60208082526033908201527f4170656e6173206f20646f6e6f20646f20636f6e747261746f2074656d2061636040820152726573736f206120657373612066756e63616f2160681b606082015260800190565b6000825161089f818460208701610642565b9190910192915050565b634e487b7160e01b600052603260045260246000fd5b600181811c908216806108d357607f821691505b602082108114156108f457634e487b7160e01b600052602260045260246000fd5b50919050565b600060001982141561091c57634e487b7160e01b600052601160045260246000fd5b506001019056fea264697066735822122075ac5eb87590351dfdf630488129930d936d761e86683002dd1a8c5bb224a80f64736f6c634300080a0033",
  "immutableReferences": {},
  "source": "pragma solidity >=0.8.0;\n// SPDX-License-Identifier: MIT\n\ncontract DataBase {\n    address public owner;\n\n    constructor(){\n        owner = msg.sender;\n    }    \n\n    struct Record{\n        string tableName;\n        string key;\n        string value;\n        uint size;\n    }\n\n    mapping(address => mapping(string => Record[])) tables;\n\n    function createTable(\n        string memory _tableName,\n        uint _tableSize,\n        string[] memory _attrNames,\n        string[] memory _records\n    ) public{\n        // Garente que apenas o usurios correto tenha acesso as funes\n        require(msg.sender == owner, \"Apenas o dono do contrato tem acesso a essa funcao!\");\n\n        for(uint i = 0; i < _tableSize; i++){\n            Record memory r = Record(\n                _tableName,\n                _attrNames[i],\n                _records[i],\n                _tableSize\n            );\n\n            tables[msg.sender][_tableName].push(r);\n        }\n    }\n\n    function tableSize(string memory _tableName) public view returns (uint){\n        require(msg.sender == owner, \"Apenas o dono do contrato tem acesso a essa funcao!\");\n\n        return tables[msg.sender][_tableName][0].size;\n    }\n\n    function retrieveRecord(string memory _tableName, uint index) public view returns (string memory key, string memory value){\n        require(msg.sender == owner, \"Apenas o dono do contrato tem acesso a essa funcao!\");\n\n        key = tables[msg.sender][_tableName][index].key;\n        value = tables[msg.sender][_tableName][index].value;\n    }\n}\n",
  "sourcePath": "/home/andrew/Documentos/UNIFEI/2021.2/Administrao e Gerncia de Redes de Computadores/Trabalhos/BlockchainProject/Project/contracts/DataBase.sol",
  "compiler": {
    "name": "solc",
    "version": "0.8.10+commit.fc410830.Emscripten.clang"
  },
  "schemaVersion": "3.4.3",
  "updatedAt": "2021-11-30T00:55:08.012Z",
  "networkType": "ethereum",
  "devdoc": {
    "kind": "dev",
    "methods": {},
    "version": 1
  },
  "userdoc": {
    "kind": "user",
    "methods": {},
    "version": 1
  }
}