{
  "contractName": "DataBase",
  "abi": [
    {
      "inputs": [
        {
          "internalType": "string",
          "name": "_tableName",
          "type": "string"
        },
        {
          "internalType": "uint256",
          "name": "_tableSize",
          "type": "uint256"
        },
        {
          "internalType": "string[]",
          "name": "_attrNames",
          "type": "string[]"
        },
        {
          "internalType": "string[]",
          "name": "_records",
          "type": "string[]"
        }
      ],
      "name": "createTable",
      "outputs": [],
      "stateMutability": "nonpayable",
      "type": "function"
    },
    {
      "inputs": [
        {
          "internalType": "string",
          "name": "_tableName",
          "type": "string"
        }
      ],
      "name": "tableSize",
      "outputs": [
        {
          "internalType": "uint256",
          "name": "",
          "type": "uint256"
        }
      ],
      "stateMutability": "view",
      "type": "function",
      "constant": true
    },
    {
      "inputs": [
        {
          "internalType": "string",
          "name": "_tableName",
          "type": "string"
        },
        {
          "internalType": "uint256",
          "name": "index",
          "type": "uint256"
        }
      ],
      "name": "retrieveRecord",
      "outputs": [
        {
          "internalType": "string",
          "name": "key",
          "type": "string"
        },
        {
          "internalType": "string",
          "name": "value",
          "type": "string"
        }
      ],
      "stateMutability": "view",
      "type": "function",
      "constant": true
    }
  ],
  "bytecode": "0x608060405234801561001057600080fd5b50610846806100206000396000f3fe608060405234801561001057600080fd5b50600436106100415760003560e01c80631ab214e9146100465780635389d4da14610070578063ada32f3614610085575b600080fd5b61005961005436600461053d565b6100a6565b6040516100679291906105de565b60405180910390f35b61008361007e3660046106ab565b610267565b005b61009861009336600461073d565b610397565b604051908152602001610067565b3360009081526020819052604090819020905160609182916100c990869061077a565b908152602001604051809103902083815481106100e8576100e8610796565b90600052602060002090600402016001018054610104906107ac565b80601f0160208091040260200160405190810160405280929190818152602001828054610130906107ac565b801561017d5780601f106101525761010080835404028352916020019161017d565b820191906000526020600020905b81548152906001019060200180831161016057829003601f168201915b505033600090815260208190526040908190209051949650936101a59350889250905061077a565b908152602001604051809103902083815481106101c4576101c4610796565b906000526020600020906004020160020180546101e0906107ac565b80601f016020809104026020016040519081016040528092919081815260200182805461020c906107ac565b80156102595780601f1061022e57610100808354040283529160200191610259565b820191906000526020600020905b81548152906001019060200180831161023c57829003601f168201915b505050505090509250929050565b60005b83811015610390576000604051806080016040528087815260200185848151811061029757610297610796565b602002602001015181526020018484815181106102b6576102b6610796565b60200260200101518152602001868152509050600080336001600160a01b03166001600160a01b03168152602001908152602001600020866040516102fb919061077a565b90815260405160209181900382019020805460018101825560009182529082902083518051859460049094029092019261033a928492909101906103ed565b50602082810151805161035392600185019201906103ed565b506040820151805161036f9160028401916020909101906103ed565b50606082015181600301555050508080610388906107e7565b91505061026a565b5050505050565b3360009081526020819052604080822090516103b490849061077a565b90815260200160405180910390206000815481106103d4576103d4610796565b9060005260206000209060040201600301549050919050565b8280546103f9906107ac565b90600052602060002090601f01602090048101928261041b5760008555610461565b82601f1061043457805160ff1916838001178555610461565b82800160010185558215610461579182015b82811115610461578251825591602001919060010190610446565b5061046d929150610471565b5090565b5b8082111561046d5760008155600101610472565b634e487b7160e01b600052604160045260246000fd5b604051601f8201601f1916810167ffffffffffffffff811182821017156104c5576104c5610486565b604052919050565b600082601f8301126104de57600080fd5b813567ffffffffffffffff8111156104f8576104f8610486565b61050b601f8201601f191660200161049c565b81815284602083860101111561052057600080fd5b816020850160208301376000918101602001919091529392505050565b6000806040838503121561055057600080fd5b823567ffffffffffffffff81111561056757600080fd5b610573858286016104cd565b95602094909401359450505050565b60005b8381101561059d578181015183820152602001610585565b838111156105ac576000848401525b50505050565b600081518084526105ca816020860160208601610582565b601f01601f19169290920160200192915050565b6040815260006105f160408301856105b2565b828103602084015261060381856105b2565b95945050505050565b600082601f83011261061d57600080fd5b8135602067ffffffffffffffff8083111561063a5761063a610486565b8260051b61064983820161049c565b938452858101830193838101908886111561066357600080fd5b84880192505b8583101561069f578235848111156106815760008081fd5b61068f8a87838c01016104cd565b8352509184019190840190610669565b98975050505050505050565b600080600080608085870312156106c157600080fd5b843567ffffffffffffffff808211156106d957600080fd5b6106e5888389016104cd565b955060208701359450604087013591508082111561070257600080fd5b61070e8883890161060c565b9350606087013591508082111561072457600080fd5b506107318782880161060c565b91505092959194509250565b60006020828403121561074f57600080fd5b813567ffffffffffffffff81111561076657600080fd5b610772848285016104cd565b949350505050565b6000825161078c818460208701610582565b9190910192915050565b634e487b7160e01b600052603260045260246000fd5b600181811c908216806107c057607f821691505b602082108114156107e157634e487b7160e01b600052602260045260246000fd5b50919050565b600060001982141561080957634e487b7160e01b600052601160045260246000fd5b506001019056fea2646970667358221220be59baeb88df68a258249186fc13df2cd110838585d85a8f688ad98d1687f12564736f6c634300080a0033",
  "immutableReferences": {},
  "source": "pragma solidity >=0.8.0;\n// SPDX-License-Identifier: MIT\n\ncontract DataBase {\n    struct Record{\n        string tableName;\n        string key;\n        string value;\n        uint size;\n    }\n\n    mapping(address => mapping(string => Record[])) tables;\n\n    function createTable(\n        string memory _tableName,\n        uint _tableSize,\n        string[] memory _attrNames,\n        string[] memory _records\n    ) public{\n        for(uint i = 0; i < _tableSize; i++){\n            Record memory r = Record(\n                _tableName,\n                _attrNames[i],\n                _records[i],\n                _tableSize\n            );\n\n            tables[msg.sender][_tableName].push(r);\n        }\n    }\n\n    function tableSize(string memory _tableName) public view returns (uint){\n        return tables[msg.sender][_tableName][0].size;\n    }\n\n    function retrieveRecord(string memory _tableName, uint index) public view returns (string memory key, string memory value){\n        key = tables[msg.sender][_tableName][index].key;\n        value = tables[msg.sender][_tableName][index].value;\n    }\n}\n",
  "sourcePath": "/home/andrew/Documentos/UNIFEI/2021.2/Administrao e Gerncia de Redes de Computadores/Trabalhos/1/Project/contracts/DataBase.sol",
  "compiler": {
    "name": "solc",
    "version": "0.8.10+commit.fc410830.Emscripten.clang"
  },
  "schemaVersion": "3.4.3",
  "updatedAt": "2021-12-02T03:03:35.923Z",
  "networkType": "ethereum",
  "devdoc": {
    "kind": "dev",
    "methods": {},
    "version": 1
  },
  "userdoc": {
    "kind": "user",
    "methods": {},
    "version": 1
  }
}